:020000040000FA
:0600000025EF09F01200DB
:0600080004EF08F01200F5
:060018000CEF08F01200DD
:0610000025EF09F01200CB
:0610080016EF08F01200D3
:061018001DEF08F01200BC
:02102A000000C4
:04102C00DACFE4FF34
:10103000E652E552E5CFDAFF1100D8CFE4FFE0CF6A
:10104000E4FFE46EDACFE4FFE652E552E5CFDAFFE3
:10105000E550E5CFE0FFE5CFD8FF10006ED88068FF
:10106000816882688368846862D8806A816A826ADB
:10107000836A846A5CD880805AD88090808280900D
:1010800056D88092808453D88094808650D8809699
:1010900080884DD88098808A4AD8809A848047D8A2
:1010A0008490848244D88492848441D884948280B9
:1010B0003ED8829082823BD88292828438D88294B1
:1010C000828C35D8829C828E32D8829E83802FD8A3
:1010D000839083822CD88392838429D883948386B7
:1010E00026D88396838823D88398838A20D8839AA6
:1010F000838C1DD8839C838E1AD8839E818017D8B9
:101100008190818214D88192818411D881948186C2
:101110000ED8819681880BD88198818A08D8819AC7
:10112000818C05D8819C818E02D8819EA4D7280EFF
:10113000E66EFEEC08F0E5521200800ED06E0F0E47
:10114000C16EB46EC50ED56E926A936A946A956A42
:0E115000966A806A816A826A836A846A1200E3
:02115E002A0E57
:10116000F66E100EF76E000EF86E00010900F550D5
:10117000656F0900F550666F03E1656701D03DD0EA
:101180000900F550606F0900F550616F0900F550D6
:10119000626F09000900F550E96E0900F550EA6E2A
:1011A000090009000900F550636F0900F550646FEC
:1011B00009000900F6CF67F0F7CF68F0F8CF69F0C3
:1011C00060C0F6FF61C0F7FF62C0F8FF0001635323
:1011D00002E1645307E00900F550EE6E6307F8E2A0
:1011E0006407F9D767C0F6FF68C0F7FF69C0F8FF6A
:0C11F00000016507000E665BBFD712000F
:0411FC00FF0EE350AF
:10120000036EEF0E01D0F30EE76EE72E05EF09F047
:101210000C0E026EE76AE72E0BEF09F0022E0AEFC2
:0A12200009F0032E03EF09F012009D
:06122A00000EF36E00EE61
:1012300000F0080E01D81200EA6002D0EE6AFCD776
:0A124000F350E9601200EE6AFCD7DB
:06124A0013EE00F023EE9C
:1012500000F0F86A019CAFEC08F033EC09F02EECDA
:0612600008F0FBD71200AC
:02126600120074
:020000040030CA
:0100000024DB
:010001000EF0
:010002003FBE
:010003001EDE
:010005008179
:010006008178
:010008000FE8
:01000900C036
:01000A000FE6
:01000B00E014
:01000C000FE4
:01000D0040B2
:00000001FF
