:020000040000FA
:06000000B7EF00F0120052
:020006001200E6
:0600080004EF08F01200F5
:060018000CEF08F01200DD
:02001E00060ECC
:10002000F66E100EF76E000EF86E00010900F55026
:10003000656F0900F550666F03E1656701D03DD03B
:100040000900F550606F0900F550616F0900F55027
:10005000626F09000900F550E96E0900F550EA6E7B
:10006000090009000900F550636F0900F550646F3D
:1000700009000900F6CF67F0F7CF68F0F8CF69F014
:1000800060C0F6FF61C0F7FF62C0F8FF0001635374
:1000900002E1645307E00900F550EE6E6307F8E2F1
:1000A0006407F9D767C0F6FF68C0F7FF69C0F8FFBB
:0C00B00000016507000E665BBFD7120060
:0400BC00DACFE4FFB4
:1000C000E652E552E5CFDAFF1100D8CFE4FFE0CFEA
:1000D000E4FFE46EDACFE4FFE652E552E5CFDAFF63
:1000E000E550E5CFE0FFE5CFD8FF100009D8808AC2
:1000F0008078807A640EE66E90EC00F0E552F8D7D6
:10010000800ED06E0F0EC16EB46E896ACF0E926EE5
:10011000C50ED56E8A6A936A8C6A956A8D6A1200DA
:10012000FF0EE350036EEF0E01D0F30EE76EE72EE5
:1001300097EF00F00C0E026EE76AE72E9DEF00F0DD
:0E014000022E9CEF00F0032E95EF00F012004F
:02014E00000EA1
:10015000F36E00EE00F0080E01D81200EA6002D043
:0E016000EE6AFCD7F350E9601200EE6AFCD79D
:02016E0013EE8E
:1001700000F023EE00F0F86A019C0FEC00F003ECB5
:0A01800000F076EC00F0FBD712004F
:06100000B7EF00F0120042
:021006000000E8
:061008005EEF00F0120093
:0610180065EF00F012007C
:020000040030CA
:0100000024DB
:010001000EF0
:010002003FBE
:010003001EDE
:010005008179
:010006008178
:010008000FE8
:01000900C036
:01000A000FE6
:01000B00E014
:01000C000FE4
:01000D0040B2
:00000001FF
