:020000040000FA
:060000001FEF0DF01200DD
:0600080004EF08F01200F5
:060018000CEF08F01200DD
:061000001FEF0DF01200CD
:061008001CEF08F01200CD
:0610180025EF08F01200B4
:06102A000100921A000013
:081030006000000069000000EF
:08103800DACFE4FFE2CFDAFF9A
:10104000E652E552E5CFDAFF1100D8CFE4FFE0CF5A
:10105000E4FFE46EDACFE4FFE2CFDAFFE652E552D6
:10106000E5CFDAFFE550E5CFE0FFE5CFD8FF100090
:10107000D9CFE6FFE1CFD9FF210EE126010EF36EB5
:10108000110EF3CFDBFF120EDB6AD950170FE96E9A
:10109000DACFEAFF300EEE6E300EEE6E300EEE6EF0
:1010A000300EEE6EEE6AD9501C0FE96EDACFEAFF11
:1010B000300EEE6E300EEE6E300EEE6E300EEE6EC8
:1010C000EE6AD0DA5DEC0BF0FFEC0BF0820EE66E10
:1010D000000EE66E9FEC0BF0E552E55204EC0CF0CE
:1010E000920EE66E000EE66E9FEC0BF0E552E552B6
:1010F0008088DE6ADD6ADECF10F0DDCF11F0D89097
:10110000115004E60D0E105C000E115806E2A2DA32
:10111000DF2A010E01E3DB2AEED7FFEC0BF0600EB5
:10112000E66E000EE66E9FEC0BF0E552E55204EC25
:101130000CF0710EE66E000EE66E9FEC0BF0E552C1
:10114000E552DE6ADD6ADECF10F0DDCF11F0D89017
:10115000115004E60D0E105C000E115806E27ADA0A
:10116000DF2A010E01E3DB2AEED7FFEC0BF0A30E22
:10117000E66E000EE66E9FEC0BF0E552E552000EB7
:10118000E66EE66A2EDAE552E5520F0EF3CFDBFF8C
:10119000100EF4CFDBFF0F0EDBCF06F0100EDBCF0F
:1011A00007F0086A096A07AE02D008680968880E65
:1011B0000B6E130E0C6E0D6A0E6A06C006F007C0A9
:1011C00007F008C008F009C009F058EC0CF002C0A4
:1011D00006F003C007F004C008F005C009F00B6872
:1011E000030E0C6E0D6A0E6A90EC0CF0130E06C026
:1011F000DBFF140E07C0DBFF150E08C0DBFF160E69
:1012000009C0DBFF130EDBCF10F0140EDBCF11F0A3
:10121000150EDBCF12F0160EDBCF13F0640E0B6E43
:101220000C6A0D6A0E6A10C006F011C007F012C0F9
:1012300008F013C009F090EC0CF006C010F007C0E5
:1012400011F008C012F009C013F0300E1026000E85
:101250001122000E1222000E1322170E10C0DBFF07
:10126000130EDBCF10F0140EDBCF11F0150EDBCF19
:1012700012F0160EDBCF13F00A0E0B6E0C6A0D6A1D
:101280000E6A10C006F011C007F012C008F013C0BB
:1012900009F090EC0CF006C010F007C011F008C087
:1012A00012F009C013F00A0E0B6E0C6A0D6A0E6A7A
:1012B00010C006F011C007F012C008F013C009F00A
:1012C00090EC0CF002C010F003C011F004C012F05A
:1012D00005C013F0300E1026000E1122000E12224F
:1012E000000E1322180E10C0DBFF2E0EF36E190E27
:1012F000F3CFDBFF130EDBCF10F0140EDBCF11F0BA
:10130000150EDBCF12F0160EDBCF13F00A0E0B6EAC
:101310000C6A0D6A0E6A10C006F011C007F012C008
:1013200008F013C009F090EC0CF002C010F003C0FC
:1013300011F004C012F005C013F0300E1026000E9C
:101340001122000E1222000E13221A0E10C0DBFF13
:10135000FFEC0BF0A30EE66E000EE66E9FEC0BF0BA
:10136000E552E552D950170FE66E000EDA20E66E10
:101370009FEC0BF0E552E552B70EE66E000EE66EFE
:101380009FEC0BF0E552E552110EDBCFE6FF120E9B
:10139000DBCFE6FF26D9E552E5520F0EF3CFDBFF98
:1013A000100EF4CFDBFF0F0EDBCF06F0100EDBCFFD
:1013B00007F0086A096A07AE02D008680968880E53
:1013C0000B6E130E0C6E0D6A0E6A06C006F007C097
:1013D00007F008C008F009C009F058EC0CF002C092
:1013E00006F003C007F004C008F005C009F00B6860
:1013F000030E0C6E0D6A0E6A90EC0CF0130E06C014
:10140000DBFF140E07C0DBFF150E08C0DBFF160E56
:1014100009C0DBFF130EDBCF10F0140EDBCF11F091
:10142000150EDBCF12F0160EDBCF13F0E80E0B6EAD
:10143000030E0C6E0D6A0E6A10C006F011C007F0A4
:1014400012C008F013C009F090EC0CF006C010F0C8
:1014500007C011F008C012F009C013F0300E1026BA
:10146000000E1122000E1222000E13221C0E10C0BC
:10147000DBFF2E0EF36E1D0EF3CFDBFF130EDBCF63
:1014800010F0140EDBCF11F0150EDBCF12F0160E9C
:10149000DBCF13F0640E0B6E0C6A0D6A0E6A10C07F
:1014A00006F011C007F012C008F013C009F090EC6C
:1014B0000CF006C010F007C011F008C012F009C00F
:1014C00013F00A0E0B6E0C6A0D6A0E6A10C006F05D
:1014D00011C007F012C008F013C009F090EC0CF036
:1014E00002C010F003C011F004C012F005C013F0E8
:1014F000300E1026000E1122000E1222000E1322B2
:101500001E0E10C0DBFF130EDBCF10F0140EDBCF6E
:1015100011F0150EDBCF12F0160EDBCF13F00A0E12
:101520000B6E0C6A0D6A0E6A10C006F011C007F04F
:1015300012C008F013C009F090EC0CF006C010F0D7
:1015400007C011F008C012F009C013F00A0E0B6EAC
:101550000C6A0D6A0E6A10C006F011C007F012C0C6
:1015600008F013C009F090EC0CF002C010F003C0BA
:1015700011F004C012F005C013F0300E1026000E5A
:101580001122000E1222000E13221F0E10C0DBFFCC
:1015900004EC0CF0AD0EE66E000EE66E9FEC0BF068
:1015A000E552E552D9501C0FE66E000EDA20E66EC9
:1015B0009FEC0BF0E552E552C00EE66E000EE66EB3
:1015C0009FEC0BF0E552E552000044D8CED5210E39
:1015D000E15C02E2E16AE552E16EE552E7CFD9FF54
:1015E0001200D9CFE6FFE1CFD9FF020EE126D95094
:1015F000FD0FE96EFF0EDA20EA6E010EEE1801E132
:10160000ED5002E1C28401D0C294010EE66E2DECD1
:101610000DF0E55246EC0DF041EC0DF0000901E053
:10162000FBD738EC0DF0F3CFDEFFF4CFDDFFDECFDC
:1016300010F0DDCF11F010C0F3FF11C0F4FF020E67
:10164000E15C03E200D0E16AE552E16EE552E7CFEA
:10165000D9FF12008078807A640EE66EE8EC0CF018
:10166000E5521200800ED06E0D0EC16E0F0EB46EDC
:10167000C50ED56E030E926E936A946A956A966A49
:10168000806A816A826A836A846A010EC26EBE0EB3
:0E169000C06E050EE66E2DEC0DF0E552120058
:02169E003C0E00
:1016A000E66EFFEC0CF0E55200D01200B40EE66ED0
:1016B000FFEC0CF0E55200D01200F00E9316939858
:1016C000939A2F0EE66E12D8E5522B0EE66E0ED8C8
:1016D000E552060EE66E0AD8E5520C0EE66E06D806
:1016E000E552010EE66E02D8E5521200D9CFE6FFB0
:1016F000E1CFD9FF8A9AF00E8A16FE0EDB380F0B67
:101700008A128A880001D36B0A0ED35D02E2D32BC2
:10171000FBD78A98F00E8A16FE0EDB500F0B8A124A
:101720008A88D36B0A0ED35D02E2D32BFBD78A984B
:10173000B6DFF00E8A16E552E7CFD9FF1200D9CFF7
:10174000E6FFE1CFD9FF020EE126DE6ADD6AFD0E7B
:10175000DBCF10F0FE0EDBCF11F0DE501024E96E6F
:10176000DD501120EA6EEF50E66E1DD8E552DF2AFB
:10177000010E01E3DB2AFD0EDBCF10F0FE0EDBCF06
:1017800011F0DE501024E96EDD501120EA6EEF50AA
:10179000DEE1020EE15C02E2E16AE552E16EE55251
:1017A000E7CFD9FF1200D9CFE6FFE1CFD9FFF00E86
:1017B0008A16FE0EDB380F0B8A128A8A8A8800018D
:1017C000D36B0A0ED35D02E2D32BFBD78A988A9A99
:1017D000F00E8A16FE0EDB500F0B8A128A8A8A8858
:1017E000D36B0A0ED35D02E2D32BFBD78A988A9A79
:1017F00056DFF00E8A16E552E7CFD9FF1200800EB1
:10180000E66E74DFE5521200C00EE66E6FDFE55241
:021810001200C4
:0E1812002A0EF66E100EF76E000EF86E000134
:101820000900F550CE6F0900F550CF6F03E1CE6788
:1018300001D03DD00900F550C96F0900F550CA6FBD
:101840000900F550CB6F09000900F550E96E090059
:10185000F550EA6E090009000900F550CC6F090047
:10186000F550CD6F09000900F6CFD0F0F7CFD1F0D9
:10187000F8CFD2F0C9C0F6FFCAC0F7FFCBC0F8FF5F
:101880000001CC5302E1CD5307E00900F550EE6EA4
:10189000CC07F8E2CD07F9D7D0C0F6FFD1C0F7FFEB
:1018A000D2C0F8FF0001CE07000ECF5BBFD71200F9
:1018B00006500B02F3CF02F0F4CF03F00C02F3500A
:1018C0000326000EF420046E06500D02F350042689
:1018D000000EF420056E06500E02F3500526075048
:1018E0000B02F3500326F4500422000E0522075089
:1018F0000C02F3500426F450052207500D02F35059
:10190000052608500B02F3500426F4500522085017
:101910000C02F350052609500B02F3500526120065
:10192000006AE86A0EAE9DEF0CF00B6C0C1E0D1EEB
:101930000E1E0C220D220E22001E09AEA8EF0CF086
:10194000066C071E081E091E072208220922001E17
:10195000C4EC0CF009BEBFEF0CF000AE000C066C3E
:10196000071E081E091EE86A072208220922026CC7
:10197000031E041E051E032204220522000C00BEC5
:08198000AFEF0CF00188FF0C31
:08198800056A046A036A026AA1
:10199000200EE76ED890063607360836093602362E
:1019A0000336043605360B50025C0C5003580D50BC
:1019B00004580E50055809E30B50025E0C50035AB0
:1019C0000D50045A0E50055A062AE72EE4D712008D
:1019D000FF0EE350156EEF0E01D0F30EE76EE72E0B
:1019E000EFEF0CF00C0E146EE76AE72EF5EF0CF03B
:0E19F000142EF4EF0CF0152EEDEF0CF012009B
:0219FE00FF0EDA
:101A0000E350156E480E01D04C0EE76EE72EFED760
:0E1A1000E76AE72EFED7152EF7D7000012006A
:021A1E00000EB8
:101A2000F36E00EE00F0080E01D81200EA6002D05A
:0E1A3000EE6AFCD7F350E9601200EE6AFCD7B4
:021A3E0013EEA5
:101A400000F023EE00F0F86A019C09EC0CF048EC81
:0A1A50000DF038EC08F0FBD712008F
:061A5A00FF0EE350E84E10
:101A60001200000000D000D000D0E82EFAD71200FB
:101A7000C450136E126AC3501210F36E13C0F4FFF9
:021A8000120052
:0A1A8200C250020B01E0010E120039
:041A8C00C282120000
:021A9000120042
:0E1A92002020436F6E766572736F7220412FB5
:101AA000442000202054656D702E2F54656E7361A4
:101AB0006F20200020202020416775617264652C12
:101AC000202020002020496E696369616E646F2EBA
:101AD0002E2E2020002054656D702E203A200020EC
:101AE00054656E73616F3A20006F432020202020E0
:0B1AF00020005664632020202020000E
:020000040030CA
:0100000024DB
:010001000EF0
:010002003FBE
:010003001EDE
:010005008179
:010006008178
:010008000FE8
:01000900C036
:01000A000FE6
:01000B00E014
:01000C000FE4
:01000D0040B2
:00000001FF
